:10033E00758901758A78758CFFD28C308DFDC28CD3
:03034E00C28D223B
:06000300AB40AA41A94236
:10000900D20020A00F12023CB40209C2A4E41202D9
:10001900820200D9208115900001120255B4020C08
:10002900C285900001E41202940200D920A3159020
:100039000002120255B4020CC2A7900002E4120297
:10004900940200D9208214900003120255B4020BC5
:10005900C286900003E412029480752094149000E3
:1000690004120255B4020BC296900004E4120294E1
:10007900805E208014900005120255B4020BC284E0
:10008900900005E4120294804720A1149000061202
:100099000255B4020BC2A5900006E4120294803006
:1000A900208314900007120255B4020BC2879000F6
:1000B90007E4120294801920A21490000812025534
:1000C900B4020BC2A6900008E41202948002C20096
:0200D900A20083
:0100DB002202
:0600DC00AB40AA41A9425D
:1000E20012023CB40102D2A4900001120255B401E2
:1000F20002D285900002120255B40102D2A79000EA
:1001020003120255B40102D286900004120255B4C1
:100112000102D296900005120255B40102D28490D7
:100122000006120255B40102D2A590000712025530
:10013200B40102D287900008120255B40102D2A67D
:1001420012033E12023CB40102C2A4900001120248
:1001520055B40102C285900002120255B40102C2D6
:10016200A7900003120255B40102C2869000041245
:100172000255B40102C296900005120255B4010262
:10018200C284900006120255B40102C2A590000773
:10019200120255B40102C287900008120255B4013E
:0401A20002C2A622CD
:0602C8008B408A418942CF
:1002CE00E4F54BF549E4F54AAF49EF3395E0FE7C92
:1002DE00007D031202B6AB40E5422FF9E5413EFA2E
:1002EE00AF4AEF3395E0FEE92FF9EA3EFA740212B7
:1002FE000282054AE54AB403CF0549E549B403C570
:10030E0012000350FBAB40AA41A942900004120216
:10031E0055B4020A9000047401120294800574010F
:10032E0012028212000340051200DC80F60200DC8D
:1001A600E4F5A4F591F584F53CF53DE4F53EF53F1F
:1001B600AF3FAE3DEE75F003A424332FF87601EE83
:1001C60075F003A4242A2FF87601053FE53F700257
:1001D600053E6403453E70D8053DE53D7002053C8D
:1001E6006403453C70C575430075440075452A7522
:1001F60046007547007548337B007A007921120264
:10020600C8E4F53CF53DE4F53EF53FE53D75F00304
:10021600A42433253FF87601053FE53F7002053EED
:100226006403453E70E5053DE53D7002053C64030B
:06023600453C70D280B0CF
:03000000020351A7
:0C035100787FE4F6D8FD75814B0201A610
:10023C00BB010689828A83E0225002E722BBFE02C0
:09024C00E32289828A83E49322F3
:10025500BB010CE58229F582E5833AF583E022505E
:1002650006E92582F8E622BBFE06E92582F8E222A8
:0D027500E58229F582E5833AF583E49322C2
:10028200BB010689828A83F0225002F722BBFE015B
:02029200F32255
:10029400F8BB010DE58229F582E5833AF583E8F0A0
:1002A400225006E92582C8F622BBFE05E92582C84C
:0202B400F22234
:1002B600EF8DF0A4A8F0CF8CF0A428CE8DF0A42E5C
:0202C600FE2216
:00000001FF
