:1013AA0056858F568F85E4EDEFE4EFEF00000000DD
:1013BA000000004561737920446966666963756C4B
:1013CA0074794D656469756D2044696666696375EB
:1013DA006C74794861726420446966666963756CE5
:1013EA0074793220506C61796572204D6F6465485A
:1013FA006172642053706565640200000000000099
:02140A000000E0
:10166800C28DC28C758901758AFF758C6FD28C22E8
:08132D008B308A3189328D33C7
:10133500E4F534F535AF35EF3395E0FE7C007D03FC
:10134500120A8BAB30E5322FF9E5313EFAAF34EFB7
:101355003395E0FEE92FF9EA3EFA120A11640260BC
:101365001A1215BB7C007D03120A9D8D341215BB24
:101375007C007D03120A9D8D3580BAAF35EF33951C
:10138500E0FE7C007D03120A8BAB30E5322FF9E5D8
:10139500313EFAAF34EF3395E0FEE92FF9EA3EFA34
:0513A500E533020A57C8
:10000300E4FFC28DC28C758901758A99758CF1D212
:080013008C308DFD0FBF33EAB4
:01001B0022C2
:060F4200AB2DAA2EA92F21
:100F4800D20120A00F120A11B40209C2A4E4120AA5
:100F580057021018208115900001120A2AB4020CB9
:100F6800C285900001E4120A6902101820A31590A6
:100F78000002120A2AB4020CC2A7900002E4120A64
:100F880069021018208214900003120A2AB4020B76
:100F9800C286900003E4120A6980752094149000B8
:100FA80004120A2AB4020BC296900004E4120A69D9
:100FB800805E208014900005120A2AB4020BC284B5
:100FC800900005E4120A69804720A11490000612D7
:100FD8000A2AB4020BC2A5900006E4120A698030FE
:100FE800208314900007120A2AB4020BC2879000CB
:100FF80007E4120A69801920A214900008120A2A2C
:10100800B4020BC2A6900008E4120A698002C20169
:02101800A20133
:01101A0022B3
:1011B800D20120A00E120A11B402087401120A57B3
:1011C80002127F208114900001120A2AB4020B90A7
:1011D80000017401120A6902127F20A31490000210
:1011E800120A2AB4020B9000027401120A69021250
:1011F8007F208213900003120A2AB4020A90000387
:101208007401120A698070209413900004120A2A4B
:10121800B4020A9000047401120A69805A208013EB
:10122800900005120A2AB4020A9000057401120AF5
:1012380069804420A113900006120A2AB4020A9079
:1012480000067401120A69802E2083139000071289
:101258000A2AB4020A9000077401120A6980182049
:10126800A213900008120A2AB4020A900008740116
:09127800120A698002C201A20100
:01128100224A
:060026008B308A318932A3
:10002C00E4F537E4F533F534F538AF37EF3395E0D5
:10003C00FE7C007D03120A8BAB30E5322FF9E531E3
:10004C003EFAAF38EF3395E0FEE92FF9EA3EFA12AB
:10005C000A11FFB4020A0534853835853736800617
:10006C00EFB4010205330538E538B403BDE533645C
:10007C00017031E534B4022CAF36EF3395E0FE7CE1
:10008C00007D03120A8BAB30E5322FF9E5313EFAD5
:10009C00AF35EF3395E0FEE92FF9EA3EFA74011221
:1000AC000A57D3220537E5376403600302002FE4B7
:1000BC00F538E4F533F534F537AF37EF3395E0FE2B
:1000CC007C007D03120A8BAB30E5322FF9E5313E13
:1000DC00FAAF38EF3395E0FEE92FF9EA3EFA120A4F
:1000EC0011FFB4020A05348538358537368006EFA2
:1000FC00B4010205330537E537B403BDE5336401BC
:10010C007031E534B4022CAF36EF3395E0FE7C0051
:10011C007D03120A8BAB30E5322FF9E5313EFAAF95
:10012C0035EF3395E0FEE92FF9EA3EFA7401120A35
:10013C0057D3220538E538640360030200BEE4F5AA
:10014C0033F534F538F537C3E53864809483504281
:10015C00AF37EF3395E0FE7C007D03120A8BAB309A
:10016C00E5322FF9E5313EFAAF38EF3395E0FEE991
:10017C002FF9EA3EFA120A11FFB4020A0534853847
:10018C00358537368006EFB401020533053805375F
:10019C0080B5E53364017031E534B4022CAF36EF31
:1001AC003395E0FE7C007D03120A8BAB30E5322FD9
:1001BC00F9E5313EFAAF35EF3395E0FEE92FF9EA78
:1001CC003EFA7401120A57D322E4F533F53475382C
:1001DC0002F537C3E538648094804042AF37EF3383
:1001EC0095E0FE7C007D03120A8BAB30E5322FF9D3
:1001FC00E5313EFAAF38EF3395E0FEE92FF9EA3EF0
:10020C00FA120A11FFB4020A0534853835853736DF
:10021C008006EFB4010205331538053780B5E53398
:10022C0064017037E534640270317F62121691AF4D
:10023C0036EF3395E0FE7C007D03120A8BAB30E584
:10024C00322FF9E5313EFAAF35EF3395E0FEE92F69
:0C025C00F9EA3EFA7401120A57D322C3DB
:010268002273
:0604A8008B308A3189321D
:1004AE00E4F537E4F533F534F538AF37EF3395E04F
:1004BE00FE7C007D03120A8BAB30E5322FF9E5315D
:1004CE003EFAAF38EF3395E0FEE92FF9EA3EFA1225
:1004DE000A11FFB4020A0534853835853736800691
:1004EE00EFB4010205330538E538B403BDE53364D6
:1004FE00027031E534B4012CAF36EF3395E0FE7C5B
:10050E00007D03120A8BAB30E5322FF9E5313EFA4E
:10051E00AF35EF3395E0FEE92FF9EA3EFA7401129A
:10052E000A57D3220537E537640360030204B1E4AA
:10053E00F538E4F533F534F537AF37EF3395E0FEA4
:10054E007C007D03120A8BAB30E5322FF9E5313E8C
:10055E00FAAF38EF3395E0FEE92FF9EA3EFA120AC8
:10056E0011FFB4020A05348538358537368006EF1B
:10057E00B4010205330537E537B403BDE533640234
:10058E007031E534B4012CAF36EF3395E0FE7C00CC
:10059E007D03120A8BAB30E5322FF9E5313EFAAF0F
:1005AE0035EF3395E0FEE92FF9EA3EFA7401120AAF
:1005BE0057D3220538E53864036003020540E4F59D
:1005CE0033F534F538F537C3E538648094835042FB
:1005DE00AF37EF3395E0FE7C007D03120A8BAB3014
:1005EE00E5322FF9E5313EFAAF38EF3395E0FEE90B
:1005FE002FF9EA3EFA120A11FFB4020A05348538C1
:10060E00358537368006EFB40102053305380537D8
:10061E0080B5E53364027031E534B4012CAF36EFAA
:10062E003395E0FE7C007D03120A8BAB30E5322F52
:10063E00F9E5313EFAAF35EF3395E0FEE92FF9EAF1
:10064E003EFA7401120A57D322E4F533F5347538A5
:10065E0002F537C3E538648094804042AF37EF33FC
:10066E0095E0FE7C007D03120A8BAB30E5322FF94C
:10067E00E5313EFAAF38EF3395E0FEE92FF9EA3E69
:10068E00FA120A11FFB4020A053485383585373659
:10069E008006EFB4010205331538053780B5E53312
:1006AE0064027031E534B4012CAF36EF3395E0FEC1
:1006BE007C007D03120A8BAB30E5322FF9E5313E1B
:1006CE00FAAF35EF3395E0FEE92FF9EA3EFA740101
:0606DE00120A57D322C3EB
:0106E40022F3
:06026900AB2DAA2EA92F07
:06026F008B308A31893258
:10027500E4F537E4F533F534F538AF37EF3395E08A
:10028500FE7C007D03120A8BAB30E5322FF9E53198
:100295003EFAAF38EF3395E0FEE92FF9EA3EFA1260
:1002A5000A11FFB4020A05348538358537368005CD
:1002B500EF700205330538E538B403BEE533640253
:1002C5007031E534B4012CAF36EF3395E0FE7C0098
:1002D5007D03120A8BAB30E5322FF9E5313EFAAFDB
:1002E50035EF3395E0FEE92FF9EA3EFA7401120A7B
:1002F50057D3220537E53764036003020278E4F536
:1003050038E4F533F534F537AF37EF3395E0FE7C58
:10031500007D03120A8BAB30E5322FF9E5313EFA49
:10032500AF38EF3395E0FEE92FF9EA3EFA120A11EC
:10033500FFB4020A05348538358537368005EF70F8
:100345000205330537E537B403BEE5336402703182
:10035500E534B4012CAF36EF3395E0FE7C007D0328
:10036500120A8BAB30E5322FF9E5313EFAAF35EFA6
:100375003395E0FEE92FF9EA3EFA7401120A57D3E4
:10038500220538E53864036003020306E4F533F516
:1003950034F538F537C3E538648094835041AF3779
:1003A500EF3395E0FE7C007D03120A8BAB30E5321E
:1003B5002FF9E5313EFAAF38EF3395E0FEE92FF935
:1003C500EA3EFA120A11FFB4020A0534853835856A
:1003D50037368005EF700205330538053780B6E5F9
:1003E5003364027031E534B4012CAF36EF3395E058
:1003F500FE7C007D03120A8BAB30E5322FF9E53127
:100405003EFAAF35EF3395E0FEE92FF9EA3EFA748F
:1004150001120A57D322E4F533F534753802F5375E
:10042500C3E538648094804041AF37EF3395E0FEF3
:100435007C007D03120A8BAB30E5322FF9E5313EA6
:10044500FAAF38EF3395E0FEE92FF9EA3EFA120AE2
:1004550011FFB4020A05348538358537368005EF36
:10046500700205331538053780B6E53364027031FF
:10047500E534B4012CAF36EF3395E0FE7C007D0307
:10048500120A8BAB30E5322FF9E5313EFAAF35EF85
:100495003395E0FEE92FF9EA3EFA7401120A57D3C3
:0204A50022C370
:0104A7002232
:06140C007B007A0079214B
:061412008B2D8A2E892FAC
:10141800D2A4D285D2A7D286D296D284D2A5D28798
:10142800D2A6E4F530E4F531AF30EF3395E0FE7C39
:10143800007D03120A8BAB2DE52F2FF9E52E3EFA1E
:10144800AF31EF3395E0FEE92FF9EA3EFA74021264
:101458000A570531E531B403CF0530E530B403C58B
:011468002261
:0610EC00AB2DAA2EA92F76
:1010F200120A11B40102D2A4900001120A2AB40108
:1011020002D285900002120A2AB40102D2A79000EC
:1011120003120A2AB40102D286900004120A2AB4E7
:101122000102D296900005120A2AB40102D28490DA
:101132000006120A2AB40102D2A5900007120A2A56
:10114200B40102D287900008120A2AB40102D2A680
:10115200120003120A11B40102C2A4900001120A81
:101162002AB40102C285900002120A2AB40102C204
:10117200A7900003120A2AB40102C2869000041248
:101182000A2AB40102C296900005120A2AB4010288
:10119200C284900006120A2AB40102C2A590000776
:1011A200120A2AB40102C287900008120A2AB40164
:0611B20002C2A6020003C8
:0615FC00AB2DAA2EA92F61
:061602008B308A318932B1
:10160800E4FDFCD28DAB30AA31A932120F48401A42
:10161800AB30AA31A9321210F2308D081216680DBB
:0C162800BD00010CED64324C70DBC28C84
:011634002293
:060B2800AB2DAA2EA92F3F
:100B2E00120A11FF7013900001120A2A700B900026
:100B3E0002120A2A7003020BDC900003120A2AFE2C
:100B4E007010900004120A2A7008900005120A2AEA
:100B5E00607C900006120A2AFD7010900007120A9F
:100B6E002A7008900008120A2A6063EF7006EE7071
:100B7E0003ED605A900001120A2AFE7010900004D4
:100B8E00120A2A7008900007120A2A604190000289
:100B9E00120A2AFD7010900005120A2A70089000A1
:100BAE0008120A2A6028120A117010900004120A04
:100BBE002A7008900008120A2A6013ED7013900034
:100BCE0004120A2A700B900006120A2A70037F0183
:100BDE0022120A11FFB4010CEEB40108ED6401708B
:100BEE0003020CB4900003120A2AB40116900004FA
:100BFE00120A2AB4010D900005120A2A640170032C
:100C0E00020CB4900006120A2AB4011690000712C4
:100C1E000A2AB4010D900008120A2A640170030218
:100C2E000CB4EFB40113900003120A2AB4010A9017
:100C3E000006120A2A6401606D900001120A2AB49D
:100C4E000113900004120A2AB4010A900007120A36
:100C5E002A64016051900002120A2AB40113900016
:100C6E0005120A2AB4010A900008120A2A640160C9
:100C7E0035120A11B40113900004120A2AB4010AA3
:100C8E00900008120A2A6401601C900002120A2ABF
:100C9E00FEB40115900004120A2AB4010C9000064D
:100CAE00120A2AB401037F0222120A116402604E54
:100CBE00900001120A2A64026044EE6402603F90C2
:100CCE000003120A2A64026035900004120A2A6494
:100CDE0002602B900005120A2A6402602190000621
:100CEE00120A2A64026017900007120A2A64026030
:100CFE000D900008120A2A640260037F03227F000F
:010D0E0022C2
:10101B008B2D8A2E892F120F4250FBAB2DAA2EA996
:10102B002F900004120A2AB4020A900004740112D1
:10103B000A6980057401120A57120F4240051210FB
:10104B00EC80F61202694043AB2DAA2EA92F90001B
:10105B0004120A2A64017030900003120A2AB402A7
:10106B000A9000037401120A698020900005120A8D
:10107B002AB4020A9000057401120A69800D9000CF
:10108B00017401120A698003120026120F424005F7
:10109B001210EC80F6120B28EF6003020B28AB2D1D
:1010AB00AA2EA92F1204A8401B1202694016AB2DC1
:1010BB00AA2EA92F120026400BAB2DAA2EA92F7DED
:1010CB000112132D120B28EF6003020B28120F4293
:1010DB0040051210EC80F6120B28EF60C1120B28A2
:0110EB0022E2
:100E58008B2D8A2E892F121602AB2DAA2EA92F9020
:100E68000004120A2AB4020A9000047401120A69E2
:100E780080057401120A571215FCAB2DAA2EA92F52
:100E880012026F4043AB2DAA2EA92F900004120A1C
:100E98002A64017030900003120A2AB4020A9000F2
:100EA800037401120A698020900005120A2AB4020C
:100EB8000A9000057401120A69800D9000017401FE
:100EC800120A6980031200261215FCAB2DAA2EA95E
:100ED8002F120B2EEF6009AB2DAA2EA92F020B2E75
:100EE800AB2DAA2EA92F1204A84021AB2DAA2EA9FA
:100EF8002F12026F4016AB2DAA2EA92F12002640E2
:100F08000BAB2DAA2EA92F7D0112132DAB2DAA2EC6
:100F1800A92F120B2EEF6009AB2DAA2EA92F020BB9
:100F28002E1215FCAB2DAA2EA92F120B2EEF60B096
:0A0F3800AB2DAA2EA92F120B2E22BA
:101469008B2D8A2E892FAB2DAA2EA92F120B2EEF89
:10147900703AAB2DAA2EA92F120F48400BAB2DAAFB
:101489002EA92F1210F280EAAB2DAA2EA92F120B2A
:101499002EEF70D2AB2DAA2EA92F12026F40C7AB27
:1014A9002DAA2EA92F7D0112132D80BAAB2DAA2E9C
:0614B900A92F120B2E22E8
:1014BF008B2D8A2E892FAB2DAA2EA92F120B2EEF33
:1014CF007038AB2DAA2EA92F1210F2AB2DAA2EA970
:1014DF002F120F48400BAB2DAA2EA92F1210F280FE
:1014EF00EAAB2DAA2EA92F120B2EEF70C9AB2DAA86
:1014FF002EA92F7D0112132D80BCAB2DAA2EA92F43
:04150F00120B2E226B
:101513008B2D8A2E892FAB2DAA2EA92F120B2EEFDE
:101523007038AB2DAA2EA92F120F48400BAB2DAA52
:101533002EA92F1210F280EAAB2DAA2EA92F120B7F
:101543002EEF70D2AB2DAA2EA92F1211B840C7AB24
:101553002DAA2EA92F1210F280EAAB2DAA2EA92FA5
:04156300120B2E2217
:10156700C28CC28D758901EF7008750DF3750CFF7C
:10157700802ABF0108750DF5750CB6801FBF0208DC
:10158700750DF6750CFF8014BF0308750DF8750C03
:10159700CC8009BF0406750DF9750CFFE4FFC28CFA
:1015A700C28D850D8C850C8AD28C308DFDB2970F3C
:0315B700BF78EB0F
:0115BA00220E
:021282008F2DAE
:10128400782E7C007D007BFF7A1379AA7E007F068E
:101294001209EB78347C007D007BFF7A1379B07EF1
:1012A400007F061209EBE52DB40224752E85752FF7
:1012B4008575305A75315A7532567533567534ED15
:1012C4007535ED7536E77537E77538E47539E4E556
:1012D4002DB40324752E8F752F5775308F753157A4
:1012E40075328F7533577534EF7535F17536EF7583
:1012F40037F17538EF7539F1758901E4FFE4FDFCC8
:10130400C28CC28D74342FF8E6F58C742E2FF8E657
:10131400F58AD28C308DFDB2970DBD00010CED64C1
:08132400FA4C70DC0FBF05D587
:01132C00229E
:020D0F008F2D26
:100D1100782E7C007D007BFF7A1379B67E007F07F9
:100D21001209EBC293E52D7012F52EF52FF530F572
:100D310031F532F533753401020E2BE52DB401176F
:100D4100752E01E4F52FF5307531017532017533DA
:100D510001753401020E2BE52DB40214E4F52E7554
:100D61002F01F530F531F532753301F534020E2BD3
:100D7100E52DB40314E4F52EF52FF530F531753278
:100D810001753301F534020E2BE52DB40415752ED2
:100D910001E4F52FF530753101753201F533F53484
:100DA100020E2BE52DB40513E4F52EF52F75300158
:100DB100F531753201F533F534806FE52DB4061246
:100DC100E4F52EF52F753001F531F532F533F534B3
:100DD1008058E52DB40715E4F52EF52FF530753162
:100DE10001753201753301753401803EE52DB4087A
:100DF10011E4F52EF52FF530F531F532F533F534F3
:100E01008028E52DB40912E4F52EF52FF530F531E2
:100E1100753201F533F5348011752E01E4F52FF5A6
:100E210030F531F532F533753401E52E24FF92A406
:100E3100E52F24FF9285E53024FF92A7E53124FFB9
:100E41009286E53224FF9296E53324FF9284E534BD
:060E510024FF92A5D293DC
:010E57002278
:1006E50078217C007D007BFF7A1479037E007F09E9
:1006F5001209EBC200E4F52CF5A4F591F584121668
:1007050035AF2C120D0F12140C20A059E4F52AAFA9
:100715002AEF3395E0FE74BD2FF58274133EF58301
:10072500E493FF121691052AC3E52A6480948F404D
:10073500DE7F0D1216917F0A12169112140CE4FF3A
:1007450012156730A0FD7B007A0079211214BF8F46
:100755002B30A0FD3081FA30A3F73082F43094F1CC
:10076500D2000208D6208159E4F52AAF2AEF339545
:10077500E0FE74CC2FF58274133EF583E493FF12EB
:100785001691052AC3E52A6480949140DE7F0D12F7
:1007950016917F0A12169112140C7F0112156730FB
:1007A50081FD7B007A0079211214698F2B30A0FD21
:1007B5003081FA30A3F73082F43094F1D200020888
:1007C500D620A359E4F52AAF2AEF3395E0FE74DD70
:1007D5002FF58274133EF583E493FF121691052AD3
:1007E500C3E52A6480948F40DE7F0D1216917F0A3F
:1007F50012169112140C7F0212156730A3FD7B00AF
:100805007A00792112101B8F2B30A0FD3081FA3030
:10081500A3F73082F43094F1D2000208D620825832
:10082500E4F52AAF2AEF3395E0FE74EC2FF58274D8
:10083500133EF583E493FF121691052AC3E52A6456
:1008450080948D40DE7F0D1216917F0A121691124B
:10085500140C7F031215673082FD7B007A00792125
:100865001215138F2B30A0FD3081FA30A3F730829B
:10087500F43094F1D2008059209456E4F52AAF2A39
:10088500EF3395E0FE74F92FF58274133EF583E49A
:1008950093FF121691052AC3E52A6480948A40DEE7
:1008A5007F0D1216917F0A12169112140C7F0412F5
:1008B50015673094FD7B007A007921120E588F2B35
:1008C50030A0FD3081FA30A3F73082F43094F1D2B4
:1008D50000300036E52BB40108052CFF121282808A
:1008E5001FE52BB40215152CC3E52C6480948050AC
:1008F50003E4F52CAF2B1212828005AF2B12128266
:10090500C200AF2C120D0F12140C7B007A00792156
:060915001210F202070EB1
:101635005387BF75985053877FE4F5BA43A240F5A9
:10164500BD75BEF075BF0275BD035391FE43920192
:101655004391025392FDC20253B8EF53B7EFD2AC98
:03166500D2AF22DF
:030023000216784A
:0D167800309802C298309904C299C2023223
:081691002002FDD2028F992214
:03001C00AF992277
:0300000002168560
:0C168500787FE4F6D8FD7581390206E597
:10091B00E709F608DFFA8046E709F208DFFA803EBE
:10092B0088828C83E709F0A3DFFA8032E309F608AB
:10093B00DFFA8078E309F208DFFA807088828C8313
:10094B00E309F0A3DFFA806489828A83E0A3F608C7
:10095B00DFFA805889828A83E0A3F208DFFA804CA1
:10096B0080D280FA80C680D4806980F28033801078
:10097B0080A680EA809A80A880DA80E280CA8033E1
:10098B0089828A83ECFAE493A3C8C582C8CCC58359
:10099B00CCF0A3C8C582C8CCC583CCDFE9DEE78029
:1009AB000D89828A83E493A3F608DFF9ECFAA9F0A8
:1009BB00EDFB2289828A83ECFAE0A3C8C582C8CCFE
:1009CB00C583CCF0A3C8C582C8CCC583CCDFEADE17
:1009DB00E880DB89828A83E493A3F208DFF980CC79
:1009EB0088F0EF60010E4E60C388F0ED2402B40472
:1009FB000050B9F582EB2402B4040050AF23234519
:060A0B00822390096B73C9
:100A1100BB010689828A83E0225002E722BBFE02E3
:090A2100E32289828A83E4932216
:100A2A00BB010CE58229F582E5833AF583E0225081
:100A3A0006E92582F8E622BBFE06E92582F8E222CB
:0D0A4A00E58229F582E5833AF583E49322E5
:100A5700BB010689828A83F0225002F722BBFE017E
:020A6700F32278
:100A6900F8BB010DE58229F582E5833AF583E8F0C3
:100A7900225006E92582C8F622BBFE05E92582C86F
:020A8900F22257
:100A8B00EF8DF0A4A8F0CF8CF0A428CE8DF0A42E7F
:020A9B00FE2239
:100A9D00C2D5EC30E709B2D5E4C39DFDE49CFCEE74
:100AAD0030E715B2D5E4C39FFFE49EFE120AD3C30F
:100ABD00E49DFDE49CFC8003120AD330D507C3E40A
:060ACD009FFFE49EFE22E3
:1015BB00AC08AD09AE0AAF0B780FEFA2E2EC20E658
:1015CB0001B35D5E5FF47004FCFDFEFFEF13FFEEF5
:1015DB0013FEED13FDEC13FCD8E08C088D098E0A7D
:1015EB008F0BEE547FFE228E088F09E4F50AF50B64
:0115FB0022CD
:100AD300BC000BBE0029EF8DF084FFADF022E4CC07
:100AE300F875F008EF2FFFEE33FEEC33FCEE9DECD0
:100AF300984005FCEE9DFE0FD5F0E9E4CEFD22ED16
:100B0300F8F5F0EE8420D21CFEADF075F008EF2F5F
:100B1300FFED33FD4007985006D5F0F222C398FD50
:050B23000FD5F0EA22ED
:00000001FF
