:0C0E6300E4FFE4FE0EBE78FC0FBFFAF6C0
:010E6F002260
:060BC500AB08AA09A90A11
:100BCB00D20320A00F1209E8B40209C2A4E4120A4E
:100BDB002E020C7E208111900001120A01B4020832
:100BEB00C285900001020C7620A310900002120A1D
:100BFB0001B40207C2A790000280702082109000FF
:100C0B0003120A01B40207C286900003805D209490
:100C1B0010900004120A01B40207C29690000480DF
:100C2B004A208010900005120A01B40207C284907A
:100C3B000005803720A110900006120A01B40207AC
:100C4B00C2A59000068024208310900007120A0191
:100C5B00B40207C287900007801120A214900008ED
:100C6B00120A01B4020BC2A6900008E4120A4080DB
:050C7B0002C203A20308
:010C80002251
:100AFF001209E8B40102D2A4900001120A01B40154
:100B0F0002D285900002120A01B40102D2A790000E
:100B1F0003120A01B40102D286900004120A01B432
:100B2F000102D296900005120A01B40102D28490FC
:100B3F000006120A01B40102D2A5900007120A01A1
:100B4F00B40102D287900008120A01B40102D2A6A2
:100B5F00120E631209E8B40102C2A4900001120A36
:100B6F0001B40102C285900002120A01B40102C24F
:100B7F00A7900003120A01B40102C286900004126A
:100B8F000A01B40102C296900005120A01B40102D3
:100B9F00C284900006120A01B40102C2A590000798
:100BAF00120A01B40102C287900008120A01B401AF
:060BBF0002C2A6020E6353
:06080000AB3EAA3FA94037
:100806001209E8FF7013900001120A01700B9000A4
:1008160002120A0170030208B4900003120A01FED4
:100826007010900004120A017008900005120A0167
:10083600607C900006120A01FD7010900007120AF3
:10084600017008900008120A016063EF7006EE70EE
:1008560003ED605A900001120A01FF701090000427
:10086600120A017008900007120A01604190000206
:10087600120A01FE7010900005120A01700890001D
:1008860008120A0160281209E87010900004120A82
:10089600017008900008120A016013EE70129000B1
:1008A60004120A01700A900006120A017002D3228D
:1008B6001209E8FEB40111EFB4010D900002120A0C
:1008C6000164017003020990900003120A01B40149
:1008D60016900004120A01B4010D900005120A01D7
:1008E60064017003020990900006120A01B4011611
:1008F600900007120A01B4010D900008120A016463
:10090600017003020990EEB40113900003120A016C
:10091600B4010A900006120A016401606D9000019C
:10092600120A01B40113900004120A01B4010A90DC
:100936000007120A0164016051900002120A01B414
:100946000113900005120A01B4010A900008120A68
:1009560001640160351209E8B40113900004120A1B
:1009660001B4010A900008120A016401601C90009B
:1009760002120A01FFB40114900004120A01B40124
:100986000B900006120A01B40102D3221209E86490
:1009960002604D900001120A0164026043EF640296
:1009A600603E900003120A01640260349000041253
:1009B6000A016402602A900005120A01640260209E
:1009C600900006120A0164026016900007120A01DE
:1009D6006402600C900008120A0164026002D322CD
:0209E600C3222A
:060D9C008B088A09890A98
:100DA200E4F513F511E4F512AF11EF3395E0FE7C93
:100DB200007D03120A62AB08E50A2FF9E5093EFA43
:100DC200AF12EF3395E0FEE92FF9EA3EFA74021210
:100DD2000A2E0512E512B403CF0511E511B403C5BD
:100DE200120BC550FBAB08AA09A90A900004120A0B
:100DF20001B4020A9000047401120A4080057401D1
:100E0200120A2E120BC5400BAB08AA09A90A120A34
:030E1200FF80F06E
:010E150022BA
:060C81008B3E8A3F894012
:100C8700D202120800407CAB3EAA3FA940120BCB10
:100C970050F512080040EB120E167C007D03120A75
:100CA70074EC4D24FF92008043300252A201E4FE0F
:100CB70033FF7C007D03120A62AB3EE5402FF9E566
:100CC7003F3EFAA200E4FE3329F9EE3AFA1209E8A8
:100CD700B402097401120A2EC20280CD120E167CCC
:100CE700007D03120A74EC4D24FF9201120E167C4C
:100CF700007D03120A74EC4D24FF920080ABD202F0
:0B0D0700020C891208004003120800D3
:010D120022BE
:100D1300E4F5A4F591F584FFFEE4F53CF53DAD3D26
:100D2300EF75F003A424332DF87601EF75F003A4D7
:100D3300242A2DF87601053DE53D7002053C640348
:100D4300453C70DA0FBF00010EEF64034E70CA75A5
:100D5300410075420075432A754400754500754688
:100D6300337B007A007921120C81E4FEFFE4F53C29
:100D7300F53DEF75F003A42433253DF87601053DD9
:100D8300E53D7002053C6403453C70E60FBF00017E
:090D93000EEF64034E70D680B629
:03000000020E707D
:0C0E7000787FE4F6D8FD758146020D1372
:1009E800BB010689828A83E0225002E722BBFE020D
:0909F800E32289828A83E4932240
:100A0100BB010CE58229F582E5833AF583E02250AA
:100A110006E92582F8E622BBFE06E92582F8E222F4
:0D0A2100E58229F582E5833AF583E493220E
:100A2E00BB010689828A83F0225002F722BBFE01A7
:020A3E00F322A1
:100A4000F8BB010DE58229F582E5833AF583E8F0EC
:100A5000225006E92582C8F622BBFE05E92582C898
:020A6000F22280
:100A6200EF8DF0A4A8F0CF8CF0A428CE8DF0A42EA8
:020A7200FE2262
:100A7400C2D5EC30E709B2D5E4C39DFDE49CFCEE9D
:100A840030E715B2D5E4C39FFFE49EFE120AAAC361
:100A9400E49DFDE49CFC8003120AAA30D507C3E45C
:060AA4009FFFE49EFE220C
:100E1600AC14AD15AE16AF177810EC4D4E4F7004EE
:100E26007CA57DA5C3EC13FCED13FDEE13FEEF13BD
:100E3600FF5010EC64CCFCED644CFDEE644EFEEF0E
:100E460064CEFFD8DF8C148D158E168F17EE547F67
:0D0E5600FE228E148F1574A5F516F51722D7
:100AAA00BC000BBE0029EF8DF084FFADF022E4CC30
:100ABA00F875F008EF2FFFEE33FEEC33FCEE9DECF9
:100ACA00984005FCEE9DFE0FD5F0E9E4CEFD22ED3F
:100ADA00F8F5F0EE8420D21CFEADF075F008EF2F89
:100AEA00FFED33FD4007985006D5F0F222C398FD7A
:050AFA000FD5F0EA2217
:00000001FF
