:1000000075A400759100758400753000D2A0D2816E
:1000100075A0FF7580FF20A02230810530A0FA80F6
:100020000B753000A2A0828150FA8031E5302401A6
:10003000B41006118A753000E4F53020811730A025
:10004000E03081FAE530C39401B4FF0775300F74D6
:100050000F118AF53020A10530A1FD119F313080AC
:100060000020A32030A3FDE5302401C3B4100475A3
:100070003000E4F530A8FFA9FF30A308D9FBD8F77A
:10008000313080E330A3FD0200167B807A02B29704
:10009000790A785AD8FED9FADAF4DBF0C297227BD3
:1000A000C47A01B29779EB7805D8FED9FADAF4DB95
:1000B000F07BB97A01B2977953780FD8FED9FADA82
:1000C000F4DBF07B9B7A01B29779B97808D8FED936
:1000D000FADAF4DBF07B6E7A01B29779A1780DD869
:1000E000FED9FADAF4DBF07B677A01B297796F78A0
:1000F00014D8FED9FADAF4DBF07BA47A01B297794E
:10010000E97806D8FED9FADAF4DBF07BCF7A01B2CF
:100110009779DE7805D8FED9FADAF4DBF07B8C7AB1
:1001200002B2977964780AD8FED9FADAF4DBF022C1
:10013000E530F4A2E092A4A2E19285A2E292A7A205
:04014000E39286229E
:00000001FF
